{
  "contractName": "Election",
  "abi": [
    {
      "inputs": [],
      "stateMutability": "nonpayable",
      "type": "constructor"
    },
    {
      "anonymous": false,
      "inputs": [
        {
          "indexed": false,
          "internalType": "string",
          "name": "winnerName",
          "type": "string"
        },
        {
          "indexed": false,
          "internalType": "uint256",
          "name": "voteCount",
          "type": "uint256"
        }
      ],
      "name": "ElectionEnded",
      "type": "event"
    },
    {
      "anonymous": false,
      "inputs": [
        {
          "indexed": true,
          "internalType": "uint256",
          "name": "electionId",
          "type": "uint256"
        },
        {
          "indexed": true,
          "internalType": "uint256",
          "name": "candidateId",
          "type": "uint256"
        }
      ],
      "name": "VoteCasted",
      "type": "event"
    },
    {
      "inputs": [],
      "name": "electionCount",
      "outputs": [
        {
          "internalType": "uint256",
          "name": "",
          "type": "uint256"
        }
      ],
      "stateMutability": "view",
      "type": "function",
      "constant": true
    },
    {
      "inputs": [
        {
          "internalType": "uint256",
          "name": "",
          "type": "uint256"
        }
      ],
      "name": "elections",
      "outputs": [
        {
          "internalType": "uint256",
          "name": "id",
          "type": "uint256"
        },
        {
          "internalType": "string",
          "name": "name",
          "type": "string"
        },
        {
          "internalType": "enum Election.ElectionState",
          "name": "state",
          "type": "uint8"
        },
        {
          "internalType": "uint256",
          "name": "candidatesCount",
          "type": "uint256"
        },
        {
          "internalType": "uint256",
          "name": "votersCount",
          "type": "uint256"
        }
      ],
      "stateMutability": "view",
      "type": "function",
      "constant": true
    },
    {
      "inputs": [],
      "name": "owner",
      "outputs": [
        {
          "internalType": "address",
          "name": "",
          "type": "address"
        }
      ],
      "stateMutability": "view",
      "type": "function",
      "constant": true
    },
    {
      "inputs": [
        {
          "internalType": "string",
          "name": "_name",
          "type": "string"
        }
      ],
      "name": "createElection",
      "outputs": [],
      "stateMutability": "nonpayable",
      "type": "function"
    },
    {
      "inputs": [
        {
          "internalType": "uint256",
          "name": "electionId",
          "type": "uint256"
        },
        {
          "internalType": "string",
          "name": "_name",
          "type": "string"
        },
        {
          "internalType": "string",
          "name": "_gender",
          "type": "string"
        }
      ],
      "name": "addCandidate",
      "outputs": [],
      "stateMutability": "nonpayable",
      "type": "function"
    },
    {
      "inputs": [
        {
          "internalType": "uint256",
          "name": "electionId",
          "type": "uint256"
        },
        {
          "internalType": "address",
          "name": "_voter",
          "type": "address"
        }
      ],
      "name": "addVoter",
      "outputs": [],
      "stateMutability": "nonpayable",
      "type": "function"
    },
    {
      "inputs": [
        {
          "internalType": "uint256",
          "name": "electionId",
          "type": "uint256"
        }
      ],
      "name": "startElection",
      "outputs": [],
      "stateMutability": "nonpayable",
      "type": "function"
    },
    {
      "inputs": [
        {
          "internalType": "uint256",
          "name": "electionId",
          "type": "uint256"
        }
      ],
      "name": "endElection",
      "outputs": [],
      "stateMutability": "nonpayable",
      "type": "function"
    },
    {
      "inputs": [
        {
          "internalType": "uint256",
          "name": "electionId",
          "type": "uint256"
        }
      ],
      "name": "declareWinner",
      "outputs": [
        {
          "internalType": "string",
          "name": "",
          "type": "string"
        },
        {
          "internalType": "uint256",
          "name": "",
          "type": "uint256"
        }
      ],
      "stateMutability": "nonpayable",
      "type": "function"
    },
    {
      "inputs": [
        {
          "internalType": "uint256",
          "name": "electionId",
          "type": "uint256"
        },
        {
          "internalType": "uint256",
          "name": "_candidateId",
          "type": "uint256"
        }
      ],
      "name": "vote",
      "outputs": [],
      "stateMutability": "nonpayable",
      "type": "function"
    },
    {
      "inputs": [
        {
          "internalType": "uint256",
          "name": "electionId",
          "type": "uint256"
        },
        {
          "internalType": "uint256",
          "name": "_candidateId",
          "type": "uint256"
        }
      ],
      "name": "getCandidateDetails",
      "outputs": [
        {
          "internalType": "string",
          "name": "",
          "type": "string"
        },
        {
          "internalType": "uint256",
          "name": "",
          "type": "uint256"
        },
        {
          "internalType": "string",
          "name": "",
          "type": "string"
        }
      ],
      "stateMutability": "view",
      "type": "function",
      "constant": true
    },
    {
      "inputs": [
        {
          "internalType": "uint256",
          "name": "electionId",
          "type": "uint256"
        },
        {
          "internalType": "address",
          "name": "_current",
          "type": "address"
        }
      ],
      "name": "getRole",
      "outputs": [
        {
          "internalType": "uint256",
          "name": "",
          "type": "uint256"
        }
      ],
      "stateMutability": "view",
      "type": "function",
      "constant": true
    },
    {
      "inputs": [],
      "name": "getAllElections",
      "outputs": [
        {
          "internalType": "uint256[]",
          "name": "",
          "type": "uint256[]"
        },
        {
          "internalType": "string[]",
          "name": "",
          "type": "string[]"
        },
        {
          "internalType": "enum Election.ElectionState[]",
          "name": "",
          "type": "uint8[]"
        }
      ],
      "stateMutability": "view",
      "type": "function",
      "constant": true
    },
    {
      "inputs": [
        {
          "internalType": "uint256",
          "name": "electionId",
          "type": "uint256"
        }
      ],
      "name": "deleteElection",
      "outputs": [],
      "stateMutability": "nonpayable",
      "type": "function"
    }
  ],
  "bytecode": "0x608060405260006001553480156200001657600080fd5b50336000806101000a81548173ffffffffffffffffffffffffffffffffffffffff021916908373ffffffffffffffffffffffffffffffffffffffff1602179055506200009d6040518060400160405280601081526020017f44656661756c7420456c656374696f6e00000000000000000000000000000000815250620000a360201b60201c565b62000447565b60008054906101000a900473ffffffffffffffffffffffffffffffffffffffff1673ffffffffffffffffffffffffffffffffffffffff163373ffffffffffffffffffffffffffffffffffffffff161462000134576040517f08c379a00000000000000000000000000000000000000000000000000000000081526004016200012b906200030c565b60405180910390fd5b6000600260006001548152602001908152602001600020905060015481600001819055508181600101908051906020019062000172929190620001d5565b5060008160020160006101000a81548160ff021916908360028111156200019e576200019d6200032e565b5b0217905550600081600401819055506000816006018190555060016000815480929190620001cc9062000396565b91905055505050565b828054620001e39062000412565b90600052602060002090601f01602090048101928262000207576000855562000253565b82601f106200022257805160ff191683800117855562000253565b8280016001018555821562000253579182015b828111156200025257825182559160200191906001019062000235565b5b50905062000262919062000266565b5090565b5b808211156200028157600081600090555060010162000267565b5090565b600082825260208201905092915050565b7f4f6e6c79206f776e65722063616e20706572666f726d2074686973206163746960008201527f6f6e000000000000000000000000000000000000000000000000000000000000602082015250565b6000620002f460228362000285565b9150620003018262000296565b604082019050919050565b600060208201905081810360008301526200032781620002e5565b9050919050565b7f4e487b7100000000000000000000000000000000000000000000000000000000600052602160045260246000fd5b7f4e487b7100000000000000000000000000000000000000000000000000000000600052601160045260246000fd5b6000819050919050565b6000620003a3826200038c565b91507fffffffffffffffffffffffffffffffffffffffffffffffffffffffffffffffff8203620003d857620003d76200035d565b5b600182019050919050565b7f4e487b7100000000000000000000000000000000000000000000000000000000600052602260045260246000fd5b600060028204905060018216806200042b57607f821691505b602082108103620004415762000440620003e3565b5b50919050565b6129b580620004576000396000f3fe608060405234801561001057600080fd5b50600436106100e95760003560e01c80638da5cb5b1161008c5780639c98bcbb116100665780639c98bcbb1461024f578063b384abef1461026b578063e4801f3914610287578063e6c62efc146102b9576100e9565b80638da5cb5b146101e357806393552a3d14610201578063997d283014610231576100e9565b80635e6fef01116100c85780635e6fef01146101575780636d32dc4b1461018b578063740c47d4146101a75780637fd5f268146101c3576100e9565b8062c2943c146100ee578063093913211461011f57806315cf4a5f1461013b575b600080fd5b61010860048036038101906101039190611a22565b6102d5565b604051610116929190611af7565b60405180910390f35b61013960048036038101906101349190611b85565b6105da565b005b61015560048036038101906101509190611cfa565b610859565b005b610171600480360381019061016c9190611a22565b610981565b604051610182959493929190611dba565b60405180910390f35b6101a560048036038101906101a09190611a22565b610a4c565b005b6101c160048036038101906101bc9190611a22565b610ba6565b005b6101cb610d22565b6040516101da9392919061209c565b60405180910390f35b6101eb610fa7565b6040516101f891906120f7565b60405180910390f35b61021b60048036038101906102169190611b85565b610fcb565b6040516102289190612112565b60405180910390f35b6102396110ad565b6040516102469190612112565b60405180910390f35b61026960048036038101906102649190611a22565b6110b3565b005b6102856004803603810190610280919061212d565b61120c565b005b6102a1600480360381019061029c919061212d565b6114d4565b6040516102b09392919061216d565b60405180910390f35b6102d360048036038101906102ce91906121b2565b6116a6565b005b606060008060009054906101000a900473ffffffffffffffffffffffffffffffffffffffff1673ffffffffffffffffffffffffffffffffffffffff163373ffffffffffffffffffffffffffffffffffffffff1614610368576040517f08c379a000000000000000000000000000000000000000000000000000000000815260040161035f906122af565b60405180910390fd5b600060026000858152602001908152602001600020905060008160070160006103919190611887565b60005b8260040154811015610461578183600301600083815260200190815260200160002060020154111561040257826003016000828152602001908152602001600020600201549150604051806020016040528082815250836007019060016103fc9291906118a8565b5061044e565b81836003016000838152602001908152602001600020600201540361044d57826007018190806001815401808255809150506001900390600052602060002001600090919091909150555b5b8080610459906122fe565b915050610394565b506001826007018054905011156105095760006001436104819190612346565b409050600083600701805490508260405160200161049f91906123a5565b6040516020818303038152906040528051906020012060001c6104c291906123ef565b905060405180602001604052808560070183815481106104e5576104e4612420565b5b9060005260206000200154815250846007019060016105059291906118a8565b5050505b8160030160008360070160008154811061052657610525612420565b5b906000526020600020015481526020019081526020016000206001018181805461054f9061247e565b80601f016020809104026020016040519081016040528092919081815260200182805461057b9061247e565b80156105c85780601f1061059d576101008083540402835291602001916105c8565b820191906000526020600020905b8154815290600101906020018083116105ab57829003601f168201915b50505050509150935093505050915091565b60008054906101000a900473ffffffffffffffffffffffffffffffffffffffff1673ffffffffffffffffffffffffffffffffffffffff163373ffffffffffffffffffffffffffffffffffffffff1614610668576040517f08c379a000000000000000000000000000000000000000000000000000000000815260040161065f906122af565b60405180910390fd5b6000600281111561067c5761067b611d43565b5b6002600084815260200190815260200160002060020160009054906101000a900460ff1660028111156106b2576106b1611d43565b5b146106f2576040517f08c379a00000000000000000000000000000000000000000000000000000000081526004016106e990612521565b60405180910390fd5b60006002600084815260200190815260200160002090508060050160008373ffffffffffffffffffffffffffffffffffffffff1673ffffffffffffffffffffffffffffffffffffffff16815260200190815260200160002060000160019054906101000a900460ff161561079b576040517f08c379a00000000000000000000000000000000000000000000000000000000081526004016107929061258d565b60405180910390fd5b6040518060400160405280600015158152602001600115158152508160050160008473ffffffffffffffffffffffffffffffffffffffff1673ffffffffffffffffffffffffffffffffffffffff16815260200190815260200160002060008201518160000160006101000a81548160ff02191690831515021790555060208201518160000160016101000a81548160ff02191690831515021790555090505080600601600081548092919061084f906122fe565b9190505550505050565b60008054906101000a900473ffffffffffffffffffffffffffffffffffffffff1673ffffffffffffffffffffffffffffffffffffffff163373ffffffffffffffffffffffffffffffffffffffff16146108e7576040517f08c379a00000000000000000000000000000000000000000000000000000000081526004016108de906122af565b60405180910390fd5b600060026000600154815260200190815260200160002090506001548160000181905550818160010190805190602001906109239291906118f5565b5060008160020160006101000a81548160ff0219169083600281111561094c5761094b611d43565b5b0217905550600081600401819055506000816006018190555060016000815480929190610978906122fe565b91905055505050565b60026020528060005260406000206000915090508060000154908060010180546109aa9061247e565b80601f01602080910402602001604051908101604052809291908181526020018280546109d69061247e565b8015610a235780601f106109f857610100808354040283529160200191610a23565b820191906000526020600020905b815481529060010190602001808311610a0657829003601f168201915b5050505050908060020160009054906101000a900460ff16908060040154908060060154905085565b60008054906101000a900473ffffffffffffffffffffffffffffffffffffffff1673ffffffffffffffffffffffffffffffffffffffff163373ffffffffffffffffffffffffffffffffffffffff1614610ada576040517f08c379a0000000000000000000000000000000000000000000000000000000008152600401610ad1906122af565b60405180910390fd5b60006002811115610aee57610aed611d43565b5b6002600083815260200190815260200160002060020160009054906101000a900460ff166002811115610b2457610b23611d43565b5b14610b64576040517f08c379a0000000000000000000000000000000000000000000000000000000008152600401610b5b9061261f565b60405180910390fd5b60016002600083815260200190815260200160002060020160006101000a81548160ff02191690836002811115610b9e57610b9d611d43565b5b021790555050565b60008054906101000a900473ffffffffffffffffffffffffffffffffffffffff1673ffffffffffffffffffffffffffffffffffffffff163373ffffffffffffffffffffffffffffffffffffffff1614610c34576040517f08c379a0000000000000000000000000000000000000000000000000000000008152600401610c2b906122af565b60405180910390fd5b600280811115610c4757610c46611d43565b5b6002600083815260200190815260200160002060020160009054906101000a900460ff166002811115610c7d57610c7c611d43565b5b14610cbd576040517f08c379a0000000000000000000000000000000000000000000000000000000008152600401610cb4906126b1565b60405180910390fd5b60026000828152602001908152602001600020600080820160009055600182016000610ce9919061197b565b6002820160006101000a81549060ff021916905560048201600090556006820160009055600782016000610d1d9190611887565b505050565b6060806060600060015467ffffffffffffffff811115610d4557610d44611bcf565b5b604051908082528060200260200182016040528015610d735781602001602082028036833780820191505090505b509050600060015467ffffffffffffffff811115610d9457610d93611bcf565b5b604051908082528060200260200182016040528015610dc757816020015b6060815260200190600190039081610db25790505b509050600060015467ffffffffffffffff811115610de857610de7611bcf565b5b604051908082528060200260200182016040528015610e165781602001602082028036833780820191505090505b50905060005b600154811015610f95576002600082815260200190815260200160002060000154848281518110610e5057610e4f612420565b5b602002602001018181525050600260008281526020019081526020016000206001018054610e7d9061247e565b80601f0160208091040260200160405190810160405280929190818152602001828054610ea99061247e565b8015610ef65780601f10610ecb57610100808354040283529160200191610ef6565b820191906000526020600020905b815481529060010190602001808311610ed957829003601f168201915b5050505050838281518110610f0e57610f0d612420565b5b60200260200101819052506002600082815260200190815260200160002060020160009054906101000a900460ff16828281518110610f5057610f4f612420565b5b60200260200101906002811115610f6a57610f69611d43565b5b90816002811115610f7e57610f7d611d43565b5b815250508080610f8d906122fe565b915050610e1c565b50828282955095509550505050909192565b60008054906101000a900473ffffffffffffffffffffffffffffffffffffffff1681565b60008060026000858152602001908152602001600020905060008054906101000a900473ffffffffffffffffffffffffffffffffffffffff1673ffffffffffffffffffffffffffffffffffffffff168373ffffffffffffffffffffffffffffffffffffffff16036110405760019150506110a7565b8060050160008473ffffffffffffffffffffffffffffffffffffffff1673ffffffffffffffffffffffffffffffffffffffff16815260200190815260200160002060000160019054906101000a900460ff16156110a15760029150506110a7565b60039150505b92915050565b60015481565b60008054906101000a900473ffffffffffffffffffffffffffffffffffffffff1673ffffffffffffffffffffffffffffffffffffffff163373ffffffffffffffffffffffffffffffffffffffff1614611141576040517f08c379a0000000000000000000000000000000000000000000000000000000008152600401611138906122af565b60405180910390fd5b6001600281111561115557611154611d43565b5b6002600083815260200190815260200160002060020160009054906101000a900460ff16600281111561118b5761118a611d43565b5b146111cb576040517f08c379a00000000000000000000000000000000000000000000000000000000081526004016111c29061271d565b60405180910390fd5b600280600083815260200190815260200160002060020160006101000a81548160ff0219169083600281111561120457611203611d43565b5b021790555050565b600160028111156112205761121f611d43565b5b6002600084815260200190815260200160002060020160009054906101000a900460ff16600281111561125657611255611d43565b5b14611296576040517f08c379a000000000000000000000000000000000000000000000000000000000815260040161128d90612789565b60405180910390fd5b60006002600084815260200190815260200160002090508060050160003373ffffffffffffffffffffffffffffffffffffffff1673ffffffffffffffffffffffffffffffffffffffff16815260200190815260200160002060000160019054906101000a900460ff1661133e576040517f08c379a0000000000000000000000000000000000000000000000000000000008152600401611335906127f5565b60405180910390fd5b8060050160003373ffffffffffffffffffffffffffffffffffffffff1673ffffffffffffffffffffffffffffffffffffffff16815260200190815260200160002060000160009054906101000a900460ff16156113d0576040517f08c379a00000000000000000000000000000000000000000000000000000000081526004016113c790612861565b60405180910390fd5b80600401548210611416576040517f08c379a000000000000000000000000000000000000000000000000000000000815260040161140d906128cd565b60405180910390fd5b806003016000838152602001908152602001600020600201600081548092919061143f906122fe565b919050555060018160050160003373ffffffffffffffffffffffffffffffffffffffff1673ffffffffffffffffffffffffffffffffffffffff16815260200190815260200160002060000160006101000a81548160ff02191690831515021790555081837f5d4760119c8e8650149aac097d38c70515dfce015031561ad115606533e479be60405160405180910390a3505050565b606060006060600060026000878152602001908152602001600020905080600401548510611537576040517f08c379a000000000000000000000000000000000000000000000000000000000815260040161152e906128cd565b60405180910390fd5b8060030160008681526020019081526020016000206001018160030160008781526020019081526020016000206002015482600301600088815260200190815260200160002060030182805461158c9061247e565b80601f01602080910402602001604051908101604052809291908181526020018280546115b89061247e565b80156116055780601f106115da57610100808354040283529160200191611605565b820191906000526020600020905b8154815290600101906020018083116115e857829003601f168201915b505050505092508080546116189061247e565b80601f01602080910402602001604051908101604052809291908181526020018280546116449061247e565b80156116915780601f1061166657610100808354040283529160200191611691565b820191906000526020600020905b81548152906001019060200180831161167457829003601f168201915b50505050509050935093509350509250925092565b60008054906101000a900473ffffffffffffffffffffffffffffffffffffffff1673ffffffffffffffffffffffffffffffffffffffff163373ffffffffffffffffffffffffffffffffffffffff1614611734576040517f08c379a000000000000000000000000000000000000000000000000000000000815260040161172b906122af565b60405180910390fd5b6000600281111561174857611747611d43565b5b6002600085815260200190815260200160002060020160009054906101000a900460ff16600281111561177e5761177d611d43565b5b146117be576040517f08c379a00000000000000000000000000000000000000000000000000000000081526004016117b59061295f565b60405180910390fd5b60006002600085815260200190815260200160002090506000816004015490506040518060800160405280828152602001858152602001600081526020018481525082600301600083815260200190815260200160002060008201518160000155602082015181600101908051906020019061183b9291906118f5565b506040820151816002015560608201518160030190805190602001906118629291906118f5565b5090505081600401600081548092919061187b906122fe565b91905055505050505050565b50805460008255906000526020600020908101906118a591906119bb565b50565b8280548282559060005260206000209081019282156118e4579160200282015b828111156118e35782518255916020019190600101906118c8565b5b5090506118f191906119bb565b5090565b8280546119019061247e565b90600052602060002090601f016020900481019282611923576000855561196a565b82601f1061193c57805160ff191683800117855561196a565b8280016001018555821561196a579182015b8281111561196957825182559160200191906001019061194e565b5b50905061197791906119bb565b5090565b5080546119879061247e565b6000825580601f1061199957506119b8565b601f0160209004906000526020600020908101906119b791906119bb565b5b50565b5b808211156119d45760008160009055506001016119bc565b5090565b6000604051905090565b600080fd5b600080fd5b6000819050919050565b6119ff816119ec565b8114611a0a57600080fd5b50565b600081359050611a1c816119f6565b92915050565b600060208284031215611a3857611a376119e2565b5b6000611a4684828501611a0d565b91505092915050565b600081519050919050565b600082825260208201905092915050565b60005b83811015611a89578082015181840152602081019050611a6e565b83811115611a98576000848401525b50505050565b6000601f19601f8301169050919050565b6000611aba82611a4f565b611ac48185611a5a565b9350611ad4818560208601611a6b565b611add81611a9e565b840191505092915050565b611af1816119ec565b82525050565b60006040820190508181036000830152611b118185611aaf565b9050611b206020830184611ae8565b9392505050565b600073ffffffffffffffffffffffffffffffffffffffff82169050919050565b6000611b5282611b27565b9050919050565b611b6281611b47565b8114611b6d57600080fd5b50565b600081359050611b7f81611b59565b92915050565b60008060408385031215611b9c57611b9b6119e2565b5b6000611baa85828601611a0d565b9250506020611bbb85828601611b70565b9150509250929050565b600080fd5b600080fd5b7f4e487b7100000000000000000000000000000000000000000000000000000000600052604160045260246000fd5b611c0782611a9e565b810181811067ffffffffffffffff82111715611c2657611c25611bcf565b5b80604052505050565b6000611c396119d8565b9050611c458282611bfe565b919050565b600067ffffffffffffffff821115611c6557611c64611bcf565b5b611c6e82611a9e565b9050602081019050919050565b82818337600083830152505050565b6000611c9d611c9884611c4a565b611c2f565b905082815260208101848484011115611cb957611cb8611bca565b5b611cc4848285611c7b565b509392505050565b600082601f830112611ce157611ce0611bc5565b5b8135611cf1848260208601611c8a565b91505092915050565b600060208284031215611d1057611d0f6119e2565b5b600082013567ffffffffffffffff811115611d2e57611d2d6119e7565b5b611d3a84828501611ccc565b91505092915050565b7f4e487b7100000000000000000000000000000000000000000000000000000000600052602160045260246000fd5b60038110611d8357611d82611d43565b5b50565b6000819050611d9482611d72565b919050565b6000611da482611d86565b9050919050565b611db481611d99565b82525050565b600060a082019050611dcf6000830188611ae8565b8181036020830152611de18187611aaf565b9050611df06040830186611dab565b611dfd6060830185611ae8565b611e0a6080830184611ae8565b9695505050505050565b600081519050919050565b600082825260208201905092915050565b6000819050602082019050919050565b611e49816119ec565b82525050565b6000611e5b8383611e40565b60208301905092915050565b6000602082019050919050565b6000611e7f82611e14565b611e898185611e1f565b9350611e9483611e30565b8060005b83811015611ec5578151611eac8882611e4f565b9750611eb783611e67565b925050600181019050611e98565b5085935050505092915050565b600081519050919050565b600082825260208201905092915050565b6000819050602082019050919050565b600082825260208201905092915050565b6000611f1a82611a4f565b611f248185611efe565b9350611f34818560208601611a6b565b611f3d81611a9e565b840191505092915050565b6000611f548383611f0f565b905092915050565b6000602082019050919050565b6000611f7482611ed2565b611f7e8185611edd565b935083602082028501611f9085611eee565b8060005b85811015611fcc5784840389528151611fad8582611f48565b9450611fb883611f5c565b925060208a01995050600181019050611f94565b50829750879550505050505092915050565b600081519050919050565b600082825260208201905092915050565b6000819050602082019050919050565b61201381611d99565b82525050565b6000612025838361200a565b60208301905092915050565b6000602082019050919050565b600061204982611fde565b6120538185611fe9565b935061205e83611ffa565b8060005b8381101561208f5781516120768882612019565b975061208183612031565b925050600181019050612062565b5085935050505092915050565b600060608201905081810360008301526120b68186611e74565b905081810360208301526120ca8185611f69565b905081810360408301526120de818461203e565b9050949350505050565b6120f181611b47565b82525050565b600060208201905061210c60008301846120e8565b92915050565b60006020820190506121276000830184611ae8565b92915050565b60008060408385031215612144576121436119e2565b5b600061215285828601611a0d565b925050602061216385828601611a0d565b9150509250929050565b600060608201905081810360008301526121878186611aaf565b90506121966020830185611ae8565b81810360408301526121a88184611aaf565b9050949350505050565b6000806000606084860312156121cb576121ca6119e2565b5b60006121d986828701611a0d565b935050602084013567ffffffffffffffff8111156121fa576121f96119e7565b5b61220686828701611ccc565b925050604084013567ffffffffffffffff811115612227576122266119e7565b5b61223386828701611ccc565b9150509250925092565b7f4f6e6c79206f776e65722063616e20706572666f726d2074686973206163746960008201527f6f6e000000000000000000000000000000000000000000000000000000000000602082015250565b6000612299602283611a5a565b91506122a48261223d565b604082019050919050565b600060208201905081810360008301526122c88161228c565b9050919050565b7f4e487b7100000000000000000000000000000000000000000000000000000000600052601160045260246000fd5b6000612309826119ec565b91507fffffffffffffffffffffffffffffffffffffffffffffffffffffffffffffffff820361233b5761233a6122cf565b5b600182019050919050565b6000612351826119ec565b915061235c836119ec565b92508282101561236f5761236e6122cf565b5b828203905092915050565b6000819050919050565b6000819050919050565b61239f61239a8261237a565b612384565b82525050565b60006123b1828461238e565b60208201915081905092915050565b7f4e487b7100000000000000000000000000000000000000000000000000000000600052601260045260246000fd5b60006123fa826119ec565b9150612405836119ec565b925082612415576124146123c0565b5b828206905092915050565b7f4e487b7100000000000000000000000000000000000000000000000000000000600052603260045260246000fd5b7f4e487b7100000000000000000000000000000000000000000000000000000000600052602260045260246000fd5b6000600282049050600182168061249657607f821691505b6020821081036124a9576124a861244f565b5b50919050565b7f43616e6e6f742061646420766f7465727320616674657220656c656374696f6e60008201527f2073746172746564000000000000000000000000000000000000000000000000602082015250565b600061250b602883611a5a565b9150612516826124af565b604082019050919050565b6000602082019050818103600083015261253a816124fe565b9050919050565b7f566f74657220616c726561647920616464656400000000000000000000000000600082015250565b6000612577601383611a5a565b915061258282612541565b602082019050919050565b600060208201905081810360008301526125a68161256a565b9050919050565b7f456c656374696f6e20616c72656164792073746172746564206f7220656e646560008201527f6400000000000000000000000000000000000000000000000000000000000000602082015250565b6000612609602183611a5a565b9150612614826125ad565b604082019050919050565b60006020820190508181036000830152612638816125fc565b9050919050565b7f4f6e6c7920656e64656420656c656374696f6e732063616e2062652064656c6560008201527f7465640000000000000000000000000000000000000000000000000000000000602082015250565b600061269b602383611a5a565b91506126a68261263f565b604082019050919050565b600060208201905081810360008301526126ca8161268e565b9050919050565b7f456c656374696f6e206e6f7420696e2070726f67726573730000000000000000600082015250565b6000612707601883611a5a565b9150612712826126d1565b602082019050919050565b60006020820190508181036000830152612736816126fa565b9050919050565b7f456c656374696f6e206973206e6f7420696e2070726f67726573730000000000600082015250565b6000612773601b83611a5a565b915061277e8261273d565b602082019050919050565b600060208201905081810360008301526127a281612766565b9050919050565b7f596f7520617265206e6f7420616e20617574686f72697a656420766f74657200600082015250565b60006127df601f83611a5a565b91506127ea826127a9565b602082019050919050565b6000602082019050818103600083015261280e816127d2565b9050919050565b7f596f75206861766520616c726561647920766f74656400000000000000000000600082015250565b600061284b601683611a5a565b915061285682612815565b602082019050919050565b6000602082019050818103600083015261287a8161283e565b9050919050565b7f496e76616c69642063616e646964617465204944000000000000000000000000600082015250565b60006128b7601483611a5a565b91506128c282612881565b602082019050919050565b600060208201905081810360008301526128e6816128aa565b9050919050565b7f43616e6e6f74206164642063616e6469646174657320616674657220656c656360008201527f74696f6e20737461727465640000000000000000000000000000000000000000602082015250565b6000612949602c83611a5a565b9150612954826128ed565b604082019050919050565b600060208201905081810360008301526129788161293c565b905091905056fea2646970667358221220b26bbfa3883320ce8b93702bd8b9ff93bce22e0c8b523352fee49cb4c13e9bcc64736f6c634300080e0033",
  "immutableReferences": {},
  "source": "// SPDX-License-Identifier: MIT\npragma solidity >=0.4.0 <0.9.0;\n\ncontract Election {\n    enum ElectionState {\n        NotStarted,\n        InProgress,\n        Ended\n    }\n\n    struct Candidate {\n        uint256 id;\n        string name;\n        uint256 voteCount;\n        string gender;\n    }\n\n    struct Voter {\n        bool hasVoted;\n        bool isAuthorized;\n    }\n\n    struct ElectionInstance {\n        uint256 id;\n        string name;\n        ElectionState state;\n        mapping(uint256 => Candidate) candidates;\n        uint256 candidatesCount;\n        mapping(address => Voter) voters;\n        uint256 votersCount;\n\t\tuint256[] winningCandidateIds;\n\n    }\n\n    address public owner;\n    uint256 public electionCount = 0;\n    mapping(uint256 => ElectionInstance) public elections;\n\n    constructor() {\n        owner = msg.sender;\n        createElection(\"Default Election\");\n    }\n\n    modifier onlyOwner() {\n        require(msg.sender == owner, \"Only owner can perform this action\");\n        _;\n    }\n\n    event VoteCasted(uint256 indexed electionId, uint256 indexed candidateId);\n\n\tevent ElectionEnded(string winnerName, uint256 voteCount);\n\n\n    function createElection(string memory _name) public onlyOwner {\n        ElectionInstance storage newElection = elections[electionCount];\n        newElection.id = electionCount;\n        newElection.name = _name;\n        newElection.state = ElectionState.NotStarted;\n        newElection.candidatesCount = 0;\n        newElection.votersCount = 0;\n\n        electionCount++;\n    }\n\n    function addCandidate(uint256 electionId, string memory _name, string memory _gender) public onlyOwner {\n        require(elections[electionId].state == ElectionState.NotStarted, \"Cannot add candidates after election started\");\n\n        ElectionInstance storage election = elections[electionId];\n        uint256 candidateId = election.candidatesCount;\n        election.candidates[candidateId] = Candidate(candidateId, _name, 0, _gender);\n        election.candidatesCount++;\n    }\n\n    function addVoter(uint256 electionId, address _voter) public onlyOwner {\n        require(elections[electionId].state == ElectionState.NotStarted, \"Cannot add voters after election started\");\n\n        ElectionInstance storage election = elections[electionId];\n        require(!election.voters[_voter].isAuthorized, \"Voter already added\");\n\n        election.voters[_voter] = Voter(false, true);\n        election.votersCount++;\n\n    }\n\n    function startElection(uint256 electionId) public onlyOwner {\n        require(elections[electionId].state == ElectionState.NotStarted, \"Election already started or ended\");\n\n        elections[electionId].state = ElectionState.InProgress;\n    }\n\n    function endElection(uint256 electionId) public onlyOwner {\n        require(elections[electionId].state == ElectionState.InProgress, \"Election not in progress\");\n\n        elections[electionId].state = ElectionState.Ended;\n    }\n\n\tfunction declareWinner(uint256 electionId) public onlyOwner returns (string memory, uint256) {\n    ElectionInstance storage election = elections[electionId];\n\n    uint256 winningVoteCount = 0;\n    delete election.winningCandidateIds; // Clear previous winners\n\n    // Find winning candidate(s)\n    for (uint256 i = 0; i < election.candidatesCount; i++) {\n        if (election.candidates[i].voteCount > winningVoteCount) {\n            winningVoteCount = election.candidates[i].voteCount;\n            election.winningCandidateIds = [i]; // Reinitialize the winning candidate ID array\n        } else if (election.candidates[i].voteCount == winningVoteCount) {\n            election.winningCandidateIds.push(i); // Handle ties\n        }\n    }\n\n    // Handle ties with randomness\n    if (election.winningCandidateIds.length > 1) {\n        bytes32 blockHash = blockhash(block.number - 1);\n        // Use block hash for randomness\n        uint256 randomIndex = uint256(keccak256(abi.encodePacked(blockHash))) % election.winningCandidateIds.length;\n        election.winningCandidateIds = [election.winningCandidateIds[randomIndex]]; // Choose one winner\n    }\n\n    // Return the winner's name and winning vote count\n    return (\n        election.candidates[election.winningCandidateIds[0]].name,\n        winningVoteCount\n    );\n}\n\n\n    function vote(uint256 electionId, uint256 _candidateId) public {\n        require(elections[electionId].state == ElectionState.InProgress, \"Election is not in progress\");\n        ElectionInstance storage election = elections[electionId];\n\n        require(election.voters[msg.sender].isAuthorized, \"You are not an authorized voter\");\n        require(!election.voters[msg.sender].hasVoted, \"You have already voted\");\n        require(_candidateId < election.candidatesCount, \"Invalid candidate ID\");\n\n        election.candidates[_candidateId].voteCount++;\n        election.voters[msg.sender].hasVoted = true;\n\n        emit VoteCasted(electionId, _candidateId);\n    }\n\n    function getCandidateDetails(uint256 electionId, uint256 _candidateId)\n        public\n        view\n        returns (string memory, uint256, string memory)\n    {\n        ElectionInstance storage election = elections[electionId];\n        require(_candidateId < election.candidatesCount, \"Invalid candidate ID\");\n\n        return (\n            election.candidates[_candidateId].name,\n            election.candidates[_candidateId].voteCount,\n            election.candidates[_candidateId].gender\n        );\n    }\n\n\n    function getRole(uint256 electionId, address _current) public view returns (uint256) {\n        ElectionInstance storage election = elections[electionId];\n\n        if (_current == owner) {\n            return 1; // Owner\n        } else if (election.voters[_current].isAuthorized) {\n            return 2; // Voter\n        } else {\n            return 3; // Unauthorized\n        }\n    }\n\n    // Retrieve details of all elections\n    function getAllElections() public view returns (uint256[] memory, string[] memory, ElectionState[] memory) {\n        uint256[] memory ids = new uint256[](electionCount);\n        string[] memory names = new string[](electionCount);\n        ElectionState[] memory states = new ElectionState[](electionCount);\n\n        for (uint256 i = 0; i < electionCount; i++) {\n            ids[i] = elections[i].id;\n            names[i] = elections[i].name;\n            states[i] = elections[i].state;\n        }\n\n        return (ids, names, states);\n    }\n\n    // Delete an election if it is in the 'Ended' state\n    function deleteElection(uint256 electionId) public onlyOwner {\n        require(elections[electionId].state == ElectionState.Ended, \"Only ended elections can be deleted\");\n        delete elections[electionId];\n    }\n\n}",
  "sourcePath": "/Users/venky/Developer/decentralized-voting-system/contracts/Voting.sol",
  "compiler": {
    "name": "solc",
    "version": "0.8.14+commit.80d49f37.Emscripten.clang"
  },
  "schemaVersion": "3.4.16",
  "updatedAt": "2024-05-06T04:04:47.234Z",
  "networkType": "ethereum",
  "devdoc": {
    "kind": "dev",
    "methods": {},
    "version": 1
  },
  "userdoc": {
    "kind": "user",
    "methods": {},
    "version": 1
  }
}